:020000040800F2
:10000000B0DB0120F9020008CB1C0008C31C00086B
:10001000C71C0008B50800085121000800000000B6
:10002000000000000000000000000000390200088D
:10003000B90800080000000095020008CD1C000867
:100040001D0300081D0300081D0300081D03000810
:100050001D0300081D0300081D0300081D03000800
:100060001D0300081D0300081D0300081D030008F0
:100070001D0300081D0300081D0300081D030008E0
:100080001D0300081D0300081D0300081D030008D0
:100090001D0300081D0300081D0300081D030008C0
:1000A0001D0300081D0300081D0300081D030008B0
:1000B0001D0300081D0300081D0300081D030008A0
:1000C0001D0300081D0300081D0300081D03000890
:1000D0001D030008012100081D0300081D0300087E
:1000E0001D0300081D0300081D0300081D03000870
:1000F0001D0300081D0300081D0300081D03000860
:100100001D0300081D0300081D0300081D0300084F
:100110001D0300081D030008F51C00081D0300084E
:100120001D0300081D0300081D0300081D0300082F
:100130001D0300081D0300081D0300081D0300081F
:100140001D0300081D0300081D0300081D0300080F
:100150001D0300081D0300081D0300081D030008FF
:100160001D0300081D0300081D0300081D030008EF
:100170001D0300081D0300081D0300080000000007
:100180001D0300081D03000800F002F800F044F809
:100190000AA090E8000C82448344AAF10107DA45E2
:1001A00001D100F039F8AFF2090EBAE80F0013F0F0
:1001B000010F18BFFB1A43F00103184790AA000073
:1001C000B0AA0000103A24BF78C878C1FAD8520704
:1001D00024BF30C830C144BF04680C6070470000C1
:1001E0000023002400250026103A28BF78C1FBD840
:1001F000520728BF30C148BF0B607047642900F028
:100200008381732900F0B882002070471FB507F082
:1002100039FD1FBD10B510BD00F01CFB1146FFF7E6
:10022000F5FF05F041F800F03AFB03B4FFF7F2FFE9
:1002300003BC01F0ABFF00002C4B19680868B0E864
:10024000F04F80F30988BFF36F8F4FF0000080F309
:10025000118870470000000008480068006880F3BB
:1002600008884FF0000080F3148862B661B6BFF3CF
:100270004F8FBFF36F8F00DF00BF00BF08ED00E0BE
:10028000DFF80C00016841F470010160704700BFA5
:1002900088ED00E0EFF30980BFF36F8F134B1A680E
:1002A0001EF0100F08BF20ED108A20E9F04F1060FB
:1002B00009B44FF0500080F31188BFF34F8FBFF3A4
:1002C0006F8F06F0F1FC4FF0000080F3118809BC3D
:1002D00019680868B0E8F04F1EF0100F08BFB0ECC6
:1002E000108A80F30988BFF36F8F70476C0000207D
:1002F000EFF30580704700000C48016841F470017D
:1003000001600B4880470B480047FEE7FEE7FEE729
:10031000FEE7FEE7FEE7FEE7FEE7FEE7FEE700009A
:1003200005480649044A064B7047000088ED00E086
:10033000E11C000889010008B0D70120B0DB0120D2
:10034000B0D70120704753EA020C00F069802DE914
:10035000F04B4FF00006002B1FBFB3FA83F503FAF2
:1003600005F424FA05F65E4012BF1643B2FA82F590
:1003700002FA05F4C5F120051EBF22FA05FC44EA85
:100380000C04203556EA044C4FEA144418BF641C90
:100390004FF000084FF00009904271EB030C39D385
:1003A000002919BFB1FA81F701FA07F6B0FA80F710
:1003B00000FA07F6C7F120071EBF20FA07FC46EA3D
:1003C0000C062037B6FBF4FCA7EB0507103F07F03F
:1003D0001F0BCBF120060CFA0BFB2CFA06F644BFE0
:1003E000B3460026202FA4BF5E464FF0000B5BEA09
:1003F000060C08BF4FF0010B19EB0B09ABFB027C9D
:1004000048EB0608C01B06FB02CC0BFB03CC71EBD0
:100410000C01C1E70B46024641464846BDE8F08B59
:1004200013B54FF000004FF00001AFF30080BDE8BE
:100430001C4070470FB4044910B503AA029800F09D
:100440009FF910BC5DF814FB2C0000202DE9F04151
:100450000E460446002020622046E168884730B3FB
:10046000252805D0D4E901219047206A401CF2E7F5
:10047000E168204600278847050018D0A5F1410013
:10048000192802D820354FF4006732462946204605
:100490002760FFF7B3FE40B1012804D0F61D26F017
:1004A00007060836D8E7361DD6E72846DAE7206A79
:1004B000BDE8F08170B50C460546012A05D02878C4
:1004C000800600D5EA69002302E0012305E05B1CF9
:1004D000934202D2E05C0028F9D1A869E618C01A5C
:1004E000A861286A184428622846AFF3008004E017
:1004F000D5E9012114F8010B9047B442F8D32846FE
:10050000AFF3008070BD00002DE9F04106460024E5
:1005100010687529314616A510D0AFF30080002869
:1005200002DA404213A507E031688A0701D512A517
:1005300002E0490704D511A5012401E0AFF30080D2
:1005400000210A2206F1240709E0B0FBF2FCB0FB0F
:10055000F2F302FB1C00303078541846491C002886
:10056000F3D123462A463046BDE8F04100F080B87A
:10057000000000002D0000002B0000002000000003
:10058000032A40F2308010F0030C00F0158011F8BF
:10059000013BBCF1020F624498BF11F801CB00F897
:1005A000013B38BF11F8013BA2F1040298BF00F8EB
:1005B00001CB38BF00F8013B11F0030300F0F280DB
:1005C000083AC0F0088051F8043B083A51F804CBCF
:1005D000A0E80810F5E7121D5CBF51F8043B40F895
:1005E000043BAFF30080D20724BF11F8013B11F8A0
:1005F00001CB48BF11F8012B24BF00F8013B00F8E4
:1006000001CB48BF00F8012B704702F0FF0343EA1B
:10061000032242EA024200F0F9B84FF0000200B5AE
:10062000134694469646203922BFA0E80C50A0E815
:100630000C50B1F12001BFF4F7AF090728BFA0E8C3
:100640000C5048BF0CC05DF804EB890028BF40F88F
:10065000042B08BF704748BF20F8022B11F0804FD1
:1006600018BF00F8012B70477047704770477047FC
:100670002DE9F0470D4699469246044600F12408BC
:100680000168880604D5E06921F01001216000E0CE
:100690000120A84201DD471B00E00027A1697A196B
:1006A00002EB0900081AA0612078C00602D4204697
:1006B000AFF30080002608E0D4E901211AF8060013
:1006C0009047206A401C761C20624E45F4DB20785F
:1006D000C0060AD52046AFF3008006E0D4E9012128
:1006E00030209047206A401C2062381EA7F1010785
:1006F000F4DC07E0D4E9012118F805009047206AEE
:10070000401C2062281EA5F10105F3DC2046AFF352
:1007100000802078000602D50220BDE8F087012085
:10072000FBE7000001694A1C02610878704700B5C8
:100730008FB0CDE901310021059105497944CDE91A
:10074000031011466846FFF781FE0FB000BD0000A0
:10075000E5FFFFFF10B5436913B1AFF3008001E07F
:10076000FFF7A8FE012010BD127800F124010A70E5
:1007700000224A700122EDE711684FF0FF32E9E7ED
:10078000074B70B50D467B44FFF7D1FF0446284662
:1007900000F05CF810B14FF0FF3070BD204670BD26
:1007A0009F1A000010B5203AC0F00B80B1E8185035
:1007B000203AA0E81850B1E81850A0E81850BFF44B
:1007C000F5AF5FEA027C24BFB1E81850A0E81850EA
:1007D00044BF18C918C0BDE810405FEA827C24BF3E
:1007E00051F8043B40F8043B08BF7047D20728BFCC
:1007F00031F8023B48BF11F8012B28BF20F8023B1B
:1008000048BF00F8012B70474FF000020429C0F0E8
:10081000128010F0030C3FF402AFCCF1040CBCF1D9
:10082000020F18BF00F8012BA8BF20F8022BA1EB84
:100830000C01FFF7F4BE5FEAC17C24BF00F8012B76
:1008400000F8012B48BF00F8012B7047007B00F037
:1008500080007047754600F029F8AE4605006946ED
:10086000534620F00700854618B020B5FFF758FD25
:10087000BDE820404FF000064FF000074FF00008A1
:100880004FF0000B21F00701AC46ACE8C009ACE822
:10089000C009ACE8C009ACE8C0098D467047044601
:1008A000AFF300802046FFF7C0FC0000004870470F
:1008B0004CD7012000BFFEE77047000070B504462A
:1008C0001D460023B5F5804F13D154F822300C4853
:1008D0000340D1E9000640EA06108E6840EA06208F
:1008E0008E8940EA06408E693043034344F8223043
:1008F00003E06FF0704044F82200002070BD00005B
:100900000000F0CF10B503460022086853F82020FD
:1009100012480240D1E901042043CC6820430C690D
:1009200020434C6920438C692043CC6920430C6AE6
:1009300020434C6A20438C6A2043CC6A2043CC6B12
:1009400020430C6B204302438868082801D142F001
:100950004002086843F82020002010BD8000F0FF0E
:1009600030B503460024501C53F8204004F04044A6
:10097000D1E9000540EA05108D6840EA05208D891F
:1009800040EA0545088A401E45EA0055087D801E5C
:1009900045EA00608D6928430443501C43F8204019
:1009A000002030BD70B50446A56D00F07DF9064607
:1009B00094F83500022808D08020606500BF002030
:1009C00084F8340000BF012070BD2068006820F06A
:1009D0001600216808602068406920F080002168C6
:1009E0004861206C08B9A06C28B12068006820F02C
:1009F0000800216808602068006820F00100216874
:100A000008600FE000F050F9801B05280AD920206B
:100A1000606500BF002084F8340000BF032084F824
:100A20003500D1E72068006800F001000028E9D116
:100A300094F85C103F208840A86000BF002084F834
:100A4000340000BF012084F835000020BCE70146D7
:100A500091F83500022803D08020486501207047B6
:100A6000052081F835000868006820F001000A6858
:100A700010600020F3E70000F8B502460B460025A1
:100A8000002400200021DEE0012606FA01F51E68A0
:100A900006EA0504AC4275D11E7906F00306012E64
:100AA00004D01E7906F00306022E13D190684F0081
:100AB0000326BE40B0434F00DE68BE403043906026
:100AC000506801268E40B0431E79C6F300168E4052
:100AD000304350601E7906F00306032E09D0D0681B
:100AE0004F000326BE40B0434F009E68BE403043D7
:100AF000D0601E7906F00306022E13D1CF0802F152
:100B0000200656F827004E07F70E0F26BE40B043CA
:100B10004F07FF0E1E69BE403043CF0802F120068A
:100B200046F8270010684F000326BE40B0431E79E8
:100B300006F003064F00BE40304310605E6806F0CA
:100B40008056B6F1805F7DD100BF00260096404EF2
:100B5000366846F480463E4F3E603E46366806F4B0
:100B60008046009600BF00BF3A4E8F0856F8270017
:100B70008E07370F0F26BE40B043374EB24202D128
:100B8000002624E05EE0354EB24201D101261EE08F
:100B9000334EB24201D1022619E0324EB24201D1A7
:100BA000032614E0304EB24201D104260FE02F4E4E
:100BB000B24201D105260AE02D4EB24201D10626ED
:100BC00005E02C4EB24201D1072600E008268F072F
:100BD0003F0FBE4030431F4E8F0846F82700264E79
:100BE0003068A0435E6806F48036B6F5803F00D1D9
:100BF0002043214E3060361D3068A0435E6806F405
:100C00000036B6F5003F00D120431B4E361D306044
:100C1000361D3068A0435E6806F48016B6F5801F66
:100C200000D12043144E08363060361D3068A04392
:100C30005E6806F40016B6F5001F00D120430E4E84
:100C40000C363060491C1029FFF41EAFF8BD0000BF
:100C500044380240083801400000024000040240CD
:100C600000080240000C0240001002400014024044
:100C700000180240001C0240003C014010B54269CF
:100C800021EA020302EA010443EA0443836110BD3E
:100C90000AB1816101E00B0483617047014800687B
:100CA000000C7047002004E0014800687047000015
:100CB00034000020034800680349097808440149CA
:100CC00008607047340000203C00002010B50A483E
:100CD000006840F40070084908600846006840F465
:100CE00080600860032000F07FF80F2000F006F815
:100CF00000F02AF8002010BD003C024070B5044608
:100D00000E4800784FF47A71B1FBF0F00C49096895
:100D1000B1FBF0F5284600F09BFC08B1012070BD46
:100D2000102C07D200222146501E00F01EF8054864
:100D3000046001E00120F2E70020F0E73C00002021
:100D400000000020380000207047014608460028B7
:100D500009DB00F01F0301229A4043099B0003F1C5
:100D6000E023C3F8002100BF70472DE9F05F804603
:100D70000D461646002701F0EDF9074639462A468A
:100D8000334601F00700C0F1070ABAF1040F02D997
:100D90004FF0040A01E0C0F1070AD14600F1040A4D
:100DA000BAF1070F02D24FF0000A01E0A0F1030AE6
:100DB000D4464FF0010A0AFA09FAAAF1010A0AEA2E
:100DC000020A0AFA0CFA4FF0010B0BFA0CFBABF11A
:100DD000010B0BEA030B4AEA0B042146404601F0E3
:100DE000C1F9BDE8F09F000000BF00F00702064B0C
:100DF00019684FF6FF031940044B0B4343EA0221E5
:100E0000014B196000BF70470CED00E00000FA05CF
:100E100070B504460D460CB9012070BD58480068F5
:100E200000F00700A84209D255490D700846006835
:100E300000F00700A84201D00120EEE7207800F082
:100E4000020002281DD1207800F00400042805D1FA
:100E50004C48006840F4E0504A490860207800F0AF
:100E60000800082805D14748006840F4604045491B
:100E700008604448006820F0F000A1680843414938
:100E80000860207800F00100A8B36068012807D14D
:100E90003C4808380068C0F34040B8B90120BCE7BE
:100EA0006068022802D06068032807D135480838F6
:100EB0000068C0F3406048B90120AEE73148083807
:100EC0000068C0F3400008B90120A6E72D4800687B
:100ED00020F00300616808432A490860FFF7E4FE38
:100EE000064609E0FFF7E0FE801B41F288318842A8
:100EF00002D9032091E707E02248006800F00C00C7
:100F00006168B0EB810FEDD11D48006800F007006B
:100F1000A84209D91A490D700846006800F0070078
:100F2000A84201D0012078E7207800F004000428CE
:100F300007D11448006820F4E050E16808431149E3
:100F40000860207800F00800082808D10D480068E3
:100F500020F46040216940EAC1000A49086000F0BD
:100F60003FF808490968C1F30311074A515CC840BA
:100F70000649086006480068FFF7C0FE00204CE7FD
:100F8000003C0240083802408E7C0008000000202F
:100F90003800002001480068704700000000002071
:100FA00000B5FFF7F7FF04490968C1F38221034A3E
:100FB000515CC84000BD0000083802409E7C00081B
:100FC00000B5FFF7E7FF04490968C1F34231034A5E
:100FD000515CC84000BD0000083802409E7C0008FB
:100FE0002DE9F047002400250026A1462548006889
:100FF00000F00C0020B1042805D008283AD105E003
:10100000DFF8849039E0DFF8849036E01D48001F57
:10101000006800F03F041B48001F006800F48000D7
:1010200078B11A481749091F0968C1F38811A0FB54
:1010300001700146224600233846FFF784F9054631
:101040000EE011480F49091F0968C1F38811A0FB80
:1010500001700146224600233846FFF774F9054621
:101060000848001F0068C0F30140401C4600B5FB63
:10107000F6F902E0DFF8109000BF00BF4846BDE877
:10108000F0870000083802400024F40000127A00C3
:10109000F8B504460CB90120F8BD207800F0010035
:1010A000002874D0F948006800F00C0004280DD026
:1010B000F648006800F00C00082813D1F348001F20
:1010C000006800F48000B0F5800F0BD1EF480838BD
:1010D0000068C0F34040002859D06068002856D10D
:1010E0000120D9E700BF6068B0F5803F08D1E7482C
:1010F0000838006840F48030E449083908601EE090
:101100006068B0F5A02F0DD1E0480838006840F4C1
:101110008020DE49083908600846006840F48030C5
:1011200008600CE0D9480838006820F48030D749BE
:10113000083908600846006820F48020086000BF75
:10114000606890B1FFF7B0FD054606E0FFF7ACFD23
:10115000401B642801D903209EE7CC48083800686A
:10116000C0F340400028F1D011E0FFF79DFD054697
:1011700006E0FFF799FD401B642801D903208BE7A7
:10118000C24808380068C0F340400028F1D12078F8
:1011900000F0020002285FD1BC48006800F00C009B
:1011A00058B1BA48006800F00C0008281CD1B748B4
:1011B000001F006800F48000B0B9B4480838006827
:1011C000C0F3400020B1E068012801D0012063E7AE
:1011D000AE480838006820F0F800216940EAC100F4
:1011E000AA490839086037E0E06800B30120A8493F
:1011F0000860FFF759FD054606E0FFF755FD401B67
:10120000022801D9032047E7A04808380068C0F346
:1012100040000028F1D09D480838006820F0F80010
:10122000216940EAC10099490839086014E00020AA
:1012300097490860FFF738FD054606E0FFF734FDE3
:10124000401B022801D9032026E79048083800688F
:10125000C0F340000028F1D1207800F008000828F1
:101260002CD16069A8B101208A490860FFF71CFDF4
:10127000054606E0FFF718FD401B022801D90320B0
:101280000AE782486C300068C0F340000028F1D0C3
:1012900014E000207F490860FFF706FD054606E0E0
:1012A000FFF702FD401B022801D90320F4E677482E
:1012B0006C300068C0F340000028F1D1207800F0C5
:1012C0000400042870D1002770483830006800F00E
:1012D000805090B900BF002000906C483830006802
:1012E00040F080506949383108600846006800F0D5
:1012F0008050009000BF00BF01276748006800F4DD
:101300008070B0B96448006840F480706249086039
:10131000FFF7CAFC054606E0FFF7C6FC401B0228A3
:1013200001D90320B8E65C48006800F4807000280A
:10133000F2D000BFA068012808D154486830006886
:1013400040F001005149683108601DE0A06805289F
:101350000DD14E486830006840F004004B496831B8
:1013600008600846006840F0010008600CE047484B
:101370006830006820F00100444968310860084680
:10138000006820F00400086000BFA068A8B1FFF763
:101390008BFC054609E0FFF787FC401B41F28831D2
:1013A000884202D9032077E626E038486830006892
:1013B000C0F340000028EED013E0FFF775FC0546AF
:1013C00008E0FFF771FC401B41F28831884201D9E7
:1013D000032061E62D4868300068C0F34000002813
:1013E000EFD1012F07D129483830006820F0805014
:1013F00026493831086000BFA069002845D023483D
:10140000006800F00C0008285DD0A069022845D1D2
:1014100000201F490866FFF747FC054606E0FFF776
:1014200043FC401B022801D9032035E61748083841
:101430000068C0F340600028F1D1D4E907010843F7
:10144000616A40EA81110122A06AC2EB500041EAC0
:1014500000412C20005D41EA00600C49091F086032
:1014600001200B490866FFF71FFC054606E0FFF761
:101470001BFC401B022801D903200DE60348083855
:101480000068C0F340600028F1D049E0083802400D
:1014900000004742800E4742007000400020214972
:1014A0000866FFF701FC054606E0FFF7FDFB401B61
:1014B000022801D90320EFE51B480068C0F3406013
:1014C0000028F2D12CE0A069012800D1E4E51648FB
:1014D000001D0668A069012820D006F48001E0699B
:1014E00081421BD106F03F01206A814216D147F6A6
:1014F000C0703040616AB0EB811F0FD106F44031FB
:101500000122A06AC2EB5000B1EB004F06D106F0F9
:1015100070612C20005DB1EB006F01D00120BBE5B4
:101520000020B9E5000047420038024070B504468B
:101530000E4615460CB9012070BD94F8490028B933
:10154000002084F84800204600F01CF804F108014F
:101550002068FFF7D7F93146A2682068FFF700FA44
:101560002946236BD4E90102FFF7A8F9A168206896
:1015700050F8210040F00100A268216841F82200E3
:101580000020D9E710B586B0044600BF00200090C7
:101590002248006840F001002049086008460068C1
:1015A00000F00100009000BF00BF00BF00200090CD
:1015B0001A480838006840F00800184908390860DF
:1015C0000846006800F00800009000BF00BF00BFA0
:1015D000002000900846006840F0100008600846AF
:1015E000006800F01000009000BF00BF4CF20370D4
:1015F00001900220029001200390022004900C2010
:10160000059001A90648FFF737FA4FF68070019060
:1016100001A90448FFF730FA06B010BD383802407F
:10162000000C024000100240042808D14FF0E021D5
:10163000096941F004014FF0E022116107E04FF029
:10164000E021096921F004014FF0E02211617047A7
:1016500070B504462546681EB0F1807F01D3012095
:101660000FE0681E4FF0E02148610F214FF0FF307E
:1016700000F078FD00204FF0E0218861072008612C
:10168000002070BD70477047704710B50446206851
:101690000069C0F34000D8B12068C068C0F34000C2
:1016A000B0B16FF002002168086101202077206846
:1016B000806900F0030018B12046FFF7E5FF05E060
:1016C000204600F0ADF8204600F0ABF8002020776F
:1016D00020680069C0F38000D8B12068C068C0F3FA
:1016E0008000B0B16FF0040021680861022020770B
:1016F0002068806900F4407018B12046FFF7C4FFED
:1017000005E0204600F08CF8204600F08AF8002022
:10171000207720680069C0F3C000D8B12068C06895
:10172000C0F3C000B0B16FF0080021680861042068
:1017300020772068C06900F0030018B12046FFF749
:10174000A3FF05E0204600F06BF8204600F069F8A2
:101750000020207720680069C0F30010D8B120680D
:10176000C068C0F30010B0B16FF0100021680861CC
:10177000082020772068C06900F4407018B1204626
:10178000FFF782FF05E0204600F04AF8204600F00F
:1017900048F8002020772068006900F0010058B167
:1017A0002068C06800F0010030B16FF001002168CE
:1017B0000861204600F036F820680069C0F3C010C8
:1017C00058B12068C068C0F3C01030B16FF080001D
:1017D000216808612046FFF755FF20680069C0F3C3
:1017E000801058B12068C068C0F3801030B16FF02D
:1017F000400021680861204600F026F82068006952
:10180000C0F3401058B12068C068C0F3401030B138
:101810006FF02000216808612046FFF734FF10BDFB
:101820007047704710B5044605492068884205D1C5
:1018300000BF01150348FFF721FA00BF10BD0000EB
:101840000010004000140240704770477047014686
:101850000022002391F83D2091F83E3042EA030037
:10186000704700002DE9F84F04462068056820689D
:10187000C668206847694FF00009CA4605F00F099D
:10188000B9F1000F0AD105F0200038B106F02000B0
:1018900020B1204600F06BFABDE8F88FB9F1000FD7
:1018A00072D007F0010018B906F4907000286BD0D0
:1018B00005F0010030B106F4807018B1206C40F0E2
:1018C0000100206405F0040030B107F0010018B1F8
:1018D000206C40F00200206405F0020030B107F0F7
:1018E000010018B1206C40F00400206405F00800ED
:1018F00048B106F0200010B907F0010018B1206CC3
:1019000040F008002064206C70B305F0200028B17E
:1019100006F0200010B1204600F029FA2068406946
:10192000C0F3801A206C00F0080010B9BAF1000F63
:1019300023D0204600F0F0F92068406900F0400014
:10194000402816D12068406920F040002168486195
:10195000A06B50B15648A16B0865A06BFFF777F8F4
:1019600010B1A06B016D88470CE02046FFF76EFFB9
:1019700008E02046FFF76AFF04E02046FFF766FF15
:101980000020206488E7FFE7206B012879D105F06B
:101990001000002875D006F01000002871D000BF9C
:1019A0000020009020680068009020684068009047
:1019B00000BF00BF2068406900F04000402839D1D6
:1019C000A06B006840681FFA80F8B8F1000F30D0B3
:1019D000A08D40452DDDA4F82E80A06BC069B0F528
:1019E000807F1FD02068C06820F480702168C860A4
:1019F0002068406920F00100216848612068406942
:101A000020F0400021684861202084F83E0000203A
:101A100020632068C06820F010002168C860A06BB7
:101A2000FEF7C0FFA08DE28D801A81B22046FFF73D
:101A30000CFF31E7A08DE18D401A1FFA80F8E08D90
:101A4000E8B1B8F1000F1AD02068C06820F4907097
:101A50002168C8602068406920F001002168486161
:101A6000202084F83E00002020632068C06820F019
:101A700010002168C86041462046FFF7E6FE0BE7EC
:101A8000FFE705F0800030B106F0800018B1204675
:101A900000F005FB00E705F0400030B106F0400023
:101AA00018B1204600F053F9F6E600BFF4E6000056
:101AB000051D000810B504460CB9012010BDA06931
:101AC00000B100E000BF94F83D0028B9002084F880
:101AD0003C00204600F028F8242084F83D002068CF
:101AE000C06820F400502168C860204600F09EF9CC
:101AF0002068006920F490402168086120684069EE
:101B000020F02A00216848612068C06840F4005035
:101B10002168C86000202064202084F83D0084F8FB
:101B20003E000020CAE7000010B586B004462E49EA
:101B30002068884255D100BF00BF002000902B488C
:101B4000006840F01000294908600846006800F06D
:101B50001000009000BF00BF00BF00BF00BF00200A
:101B6000009022481438006840F001001F491439E1
:101B700008600846006800F00100009000BF00BF48
:101B800000BF00BF00BF002000900846006840F082
:101B9000010008600846006800F00100009000BFE6
:101BA00000BF00BF48150190022002900120039061
:101BB000022004900720059001A90D48FEF75CFF64
:101BC0004FF4806001900720059001A90848FEF7B6
:101BD00053FF2520FFF7B9F8032211462520FFF710
:101BE000C4F806B010BD00000010014044380240A7
:101BF0000000024070B504460D46164694F83E00BB
:101C0000202816D105B10EB9012070BD00BF94F88F
:101C10003C00012801D10220F7E7012084F83C00B4
:101C200000BF0020206332462946204600F014FA07
:101C3000EBE70220E9E700001D4A0168914236D136
:101C40001C49098801F4004189BB1A49098801F43B
:101C5000804171B1184909780A2903D00021154A39
:101C6000118024E01349098841F40041114A118090
:101C70001DE0114909780D2906D10E49098841F462
:101C800080410C4A118012E00B490978094A1288F8
:101C9000C2F30D02094B995406490988491C054AAB
:101CA000118011460988C72901DD00211180704784
:101CB000001001403000002032000020EC00002025
:101CC000704700BFFEE700BFFEE7704710B5FEF7A4
:101CD000F1FF05F051FB012801D005F017F910BD07
:101CE0000348006840F47000014908607047000034
:101CF00088ED00E010B50248FFF7C7FC10BD0000FA
:101D0000A802002070B50546AC6B0020E085E08499
:101D10002046FFF79BFD70BD0168C96821F49071F2
:101D20000268D1600168496921F0010102685161CE
:101D3000016B012905D10168C96821F01001026811
:101D4000D160202180F83E1000210163704710B55A
:101D500004462068C06820F040002168C860202048
:101D600084F83D002046FFF7ABFF002010BD70B5A2
:101D7000044694F83E00222856D1A068B0F5805F52
:101D80000CD1206950B90025A66A20684068C0F3CC
:101D900008003080A06A801CA06215E0A56A0026B9
:101DA000A068B0F5805F03D0A06828B9206918B991
:101DB00020684068287004E02068406800F07F00D8
:101DC0002870A06A401CA062E08D401E80B2E085B1
:101DD00040BB2068C06820F020002168C8602068EF
:101DE000C06820F480702168C8602068406920F0D5
:101DF000010021684861202084F83E00206B012802
:101E00000AD12068C06820F010002168C860A18D48
:101E10002046FFF71AFD02E02046FFF70DFF0020E5
:101E2000206370BD0020FCE70220FAE72DE9F84F9F
:101E300004462068006920F44050E16808432168A6
:101E400008612169A068084361690843E1690843A2
:101E500000902068C06849F20C61884300990843EB
:101E60002168C8602068406920F44070A169084377
:101E70002168486176492068884203D07549206806
:101E8000884203D1FFF79CF8814602E0FFF788F80B
:101E90008146E069B0F5004F6CD102206168A0FB7B
:101EA000015003461920A9FB007001462A46384616
:101EB000FEF749FA6421B0FBF1F04FEA001A022064
:101EC0006168A0FB01510B461920A9FB00712A464D
:101ED0003846FEF738FA834602206168A0FB0150BD
:101EE00003461920A9FB00712A463846FEF72BFA53
:101EF0006421B0FBF1F000EBC00101EB0010ABEB93
:101F00008000322101EBC0006421B0FBF1F000F051
:101F1000F8000AEB400A02206168A0FB015003466A
:101F20001920A9FB007001462A463846FEF70BFA35
:101F3000834602206168A0FB015003461920A9FBDB
:101F400000712A463846FEF7FEF96421B0FBF1F035
:101F500000EBC00101EB0010ABEB8000322101EB84
:101F6000C0006421B0FBF1F000F00700504421688C
:101F700088606AE004206168A0FB015003461920D4
:101F8000A9FB007001462A463846FEF7DCF9824676
:101F900004206168A0FB015003461920A9FB0070D2
:101FA00001462A463846FEF7CEF96421B0FBF1F02F
:101FB00000EBC00101EB0010AAEB8000322101EB25
:101FC00000106421B0FBF1F000F0F00A0420616819
:101FD000A0FB017003461920A9FB00513A46284690
:101FE000FEF7B1F96421B0FBF1F00AEB001A04200E
:101FF0006168A0FB01510B461920A9FB00712A461C
:102000003846FEF7A0F9834604206168A0FB015022
:1020100003461920A9FB007001462A463846FEF700
:1020200092F96421B0FBF1F000EBC00101EB00106C
:10203000ABEB8000322101EB00106421B0FBF1F02A
:1020400000F00F00504421688860BDE8F88F000060
:10205000001001400014014010B5034699629A85B2
:10206000DA8500201864222083F83E0000BF00209B
:1020700083F83C0000BF1868C06840F480701C689A
:10208000E0601868406940F001001C6860611868F1
:10209000C06840F020001C68E060002010BD0146D0
:1020A00091F83D00212828D18868B0F5805F0BD1D8
:1020B000086948B90A6A1088C0F308000B685860BC
:1020C000086A801C086205E00B6A581C08621878D0
:1020D0000B685860C88C401E80B2C88458B9086824
:1020E000C06820F080000B68D8600868C06840F0C5
:1020F00040000B68D860002070470220FCE7000019
:1021000070B500240F4D1048FFF7ACFB00BF03E093
:10211000641CAC4200D904E00B48FFF798FB202870
:10212000F6D100BF002403E0641CAC4200D906E0F5
:10213000012206490448FFF75DFD0028F4D100BFE5
:1021400070BD0000FFFF0100B4010020320000203C
:1021500000BFFEE702480068C0F30220704700009D
:102160000CED00E010B5002804DB0A07130E054A49
:10217000135406E00A07140E034A00F00F031B1F56
:10218000D45410BD00E400E018ED00E000BF70473B
:1021900070B504460420FFF747FA0A480460254654
:1021A0004FF47A7045434FF0E020006940F00200A0
:1021B0004FF0E021086108464561006940F00100E8
:1021C000086170BD2800002030B50446002504E0F9
:1021D0004FF47A7000F004F86D1CA542F8D330BDBE
:1021E00070B5034600224FF0E02675690D4E366843
:1021F00003FB06F44FF0E026B16910E04FF0E02653
:10220000B06988420BD0884202D20E1A324402E0F2
:102210002E1A0E4432440146A24200D300E0EDE7FC
:1022200000BF70BD2800002000BF054A126802F000
:102230004002002AF9D0C2B2014B5A607047000038
:10224000001001401CB50648012100238022CDE981
:10225000001004A1064805F05FF804F0BBFC1CBDAB
:102260000400002073746172745F7461736B00000A
:10227000DD63000800B587B000BF00BF00200190FB
:102280003848006840F01000364908600846006889
:1022900000F01000019000BF00BF00BF00BF00BFF2
:1022A000002001900846006840F0100008600846D1
:1022B000006800F01000019000BF00BF00BF00BF29
:1022C00000BF002001900846006840F01000086040
:1022D0000846006800F01000019000BF00BF00BF7A
:1022E00000BF00BF002001900846006840F00100D8
:1022F00008600846006800F00100019000BF00BFC0
:1023000000BF1020029000200390012004900220C2
:10231000059002A91448FEF7AFFB082002900020A8
:102320000390012004900220059002A90E48FEF7B8
:10233000A3FB0420029000200390012004900220BF
:10234000059002A90848FEF797FB012002900020A3
:10235000039002200490059002A90448FEF78CFB2C
:1023600007B000BD303802400010024000000240BB
:1023700070B5044600260948058840884543002179
:10238000084602F083FD02F02FFF00BF02E0044880
:102390000480761CAE42FAD370BD000048020020D3
:1023A0008000006C10B5044649488471002C45D16A
:1023B000F020474908804FF4A07048800846808884
:1023C00045F21051884210D14FF4305040490881F5
:1023D0004FF4285048814FF42C5088814FF4F0700E
:1023E00008804FF4487048801AE03948808841F6E8
:1023F000631188420DD12C20354908812B2048815A
:102400002A2088814FF4F07008804FF4487048808B
:1024100006E02C202E4908812A2048812B20888123
:102420002B48808845F2103188424CD14FF4A0707F
:10243000274908804FF4F070488044E04FF4A070C2
:1024400023490880F02048800846808845F21051D2
:10245000884210D14FF430501D4908814FF4285064
:1024600048814FF42C5088814FF4487008804FF415
:10247000F07048801AE01648808841F6631188425F
:102480000DD12C20124908812A2048812B208881D7
:102490004FF4487008804FF4F070488006E02C201C
:1024A0000B4908812A2048812B2088810848808890
:1024B00045F21031884206D14FF4F070044908808B
:1024C0004FF4A0704880002002F0C8FB10BD00004F
:1024D0004802002070B505460E461446314628468F
:1024E00002F0D4FC02F080FE01490C8070BD0000B7
:1024F0008000006C10B5CF2002F06AFE002002F0D0
:102500005BFEC12002F058FE302002F055FEED20A7
:1025100002F05EFE642002F04FFE032002F04CFE4B
:10252000122002F049FE812002F046FEE82002F06F
:102530004FFE852002F040FE102002F03DFE7A2082
:1025400002F03AFECB2002F043FE392002F034FEC6
:102550002C2002F031FE002002F02EFE342002F08A
:102560002BFE022002F028FEF72002F031FE202090
:1025700002F022FEEA2002F02BFE002002F01CFEF8
:10258000002002F019FEC02002F022FE1B2002F003
:1025900013FEC12002F01CFE012002F00DFEC5203A
:1025A00002F016FE302002F007FE302002F004FE9A
:1025B000C72002F00DFEB72002F0FEFD362002F02B
:1025C00007FE482002F0F8FD3A2002F001FE5520F7
:1025D00002F0F2FDB12002F0FBFD002002F0ECFD64
:1025E0001A2002F0E9FDB62002F0F2FD0A2002F006
:1025F000E3FDA22002F0E0FDF22002F0E9FD002060
:1026000002F0DAFD262002F0E3FD012002F0D4FD05
:10261000E02002F0DDFD0F2002F0CEFD2A2002F0C6
:10262000CBFD282002F0C8FD082002F0C5FD0E20D9
:1026300002F0C2FD082002F0BFFD542002F0BCFDF4
:10264000A92002F0B9FD432002F0B6FD0A2002F0F5
:10265000B3FD0F2002F0B0FD002002F0ADFD002020
:1026600002F0AAFD002002F0A7FD002002F0A4FD68
:10267000E12002F0ADFD002002F09EFD152002F0E9
:102680009BFD172002F098FD072002F095FD112018
:1026900002F092FD062002F08FFD2B2002F08CFD4F
:1026A000562002F089FD3C2002F086FD052002F054
:1026B00083FD102002F080FD0F2002F07DFD3F2001
:1026C00002F07AFD3F2002F077FD0F2002F074FD4A
:1026D0002B2002F07DFD002002F06EFD002002F0B4
:1026E0006BFD012002F068FD3F2002F065FD2A200D
:1026F00002F06EFD002002F05FFD002002F05CFDA4
:10270000002002F059FDEF2002F056FD112002F0EA
:102710005FFD7820FFF758FD292002F059FD10BD1C
:1027200010B5ED2002F054FD012002F045FDFE2021
:1027300002F042FDEE2002F04BFDDE2002F03CFDF7
:10274000212002F039FDF12002F042FD012002F0CB
:1027500033FDDF2002F03CFD102002F02DFDC420EF
:1027600002F036FD8F2002F027FDC62002F030FD7A
:10277000002002F021FDE22002F01EFDE22002F026
:102780001BFDE22002F018FDBF2002F021FDAA206F
:1027900002F012FDB02002F01BFD0D2002F00CFD36
:1027A000002002F009FD0D2002F006FD002002F0DD
:1027B00003FD112002F000FD002002F0FDFC1920B5
:1027C00002F0FAFC002002F0F7FC212002F0F4FCF9
:1027D000002002F0F1FC2D2002F0EEFC002002F0BF
:1027E000EBFC3D2002F0E8FC002002F0E5FC5D205F
:1027F00002F0E2FC002002F0DFFC5D2002F0DCFCD5
:10280000002002F0D9FCB12002F0E2FC802002F0AE
:10281000D3FC002002F0D0FC8B2002F0CDFC002085
:1028200002F0CAFC962002F0C7FC002002F0C4FCB3
:10283000B22002F0CDFC002002F0BEFC002002F02D
:10284000BBFC022002F0B8FC002002F0B5FC032023
:1028500002F0B2FC002002F0AFFCB32002F0B8FCA2
:10286000002002F0A9FC002002F0A6FC002002F0EB
:10287000A3FC002002F0A0FC002002F09DFC002040
:1028800002F09AFC002002F097FC002002F094FC79
:10289000002002F091FC002002F08EFC002002F0EB
:1028A0008BFC002002F088FC002002F085FC002058
:1028B00002F082FC002002F07FFC002002F07CFC91
:1028C000002002F079FC002002F076FC002002F0EB
:1028D00073FC002002F070FC002002F06DFC002070
:1028E00002F06AFC002002F067FC002002F064FCA9
:1028F000B42002F06DFC8B2002F05EFC002002F0A0
:102900005BFC962002F058FC002002F055FCA12050
:1029100002F052FC002002F04FFCB52002F058FCFF
:10292000022002F049FC002002F046FC032002F0E5
:1029300043FC002002F040FC042002F03DFC00209B
:1029400002F03AFCB62002F043FC002002F034FC16
:10295000002002F031FCB72002F03AFC002002F027
:102960002BFC002002F028FC3F2002F025FC002078
:1029700002F022FC5E2002F01FFC002002F01CFC92
:10298000642002F019FC002002F016FC8C2002F0FA
:1029900013FC002002F010FCAC2002F00DFC002023
:1029A00002F00AFCDC2002F007FC002002F004FC2C
:1029B000702002F001FC002002F0FEFB902002F0EB
:1029C000FBFB002002F0F8FBEB2002F0F5FB0020FF
:1029D00002F0F2FBDC2002F0EFFB002002F0ECFB47
:1029E000B82002F0F5FB002002F0E6FB002002F028
:1029F000E3FB002002F0E0FB002002F0DDFB002002
:102A000002F0DAFB002002F0D7FB002002F0D4FB3A
:102A1000002002F0D1FBBA2002F0DAFB242002F001
:102A2000CBFB002002F0C8FB002002F0C5FB002019
:102A300002F0C2FBC12002F0CBFB202002F0BCFB65
:102A4000002002F0B9FB542002F0B6FB002002F097
:102A5000B3FBFF2002F0B0FB002002F0ADFBC22070
:102A600002F0B6FB0A2002F0A7FB002002F0A4FB54
:102A7000042002F0A1FB002002F09EFBC32002F024
:102A8000A7FB3C2002F098FB002002F095FB3A20C7
:102A900002F092FB002002F08FFB392002F08CFB49
:102AA000002002F089FB372002F086FB002002F0B4
:102AB00083FB3C2002F080FB002002F07DFB3620EF
:102AC00002F07AFB002002F077FB322002F074FB68
:102AD000002002F071FB2F2002F06EFB002002F0BC
:102AE0006BFB2C2002F068FB002002F065FB292024
:102AF00002F062FB002002F05FFB262002F05CFB8C
:102B0000002002F059FB242002F056FB002002F0C6
:102B100053FB242002F050FB002002F04DFB232049
:102B200002F04AFB002002F047FB3C2002F044FB8D
:102B3000002002F041FB362002F03EFB002002F0B4
:102B40003BFB322002F038FB002002F035FB2F2047
:102B500002F032FB002002F02FFB2C2002F02CFBB5
:102B6000002002F029FB292002F026FB002002F0C1
:102B700023FB262002F020FB002002F01DFB242076
:102B800002F01AFB002002F017FB242002F014FBD5
:102B9000002002F011FB232002F00EFB002002F0C7
:102BA0000BFBC42002F014FB622002F005FB0020A6
:102BB00002F002FB052002F0FFFA002002F0FCFA0E
:102BC000842002F0F9FA002002F0F6FAF02002F078
:102BD000F3FA002002F0F0FA182002F0EDFA0020DB
:102BE00002F0EAFAA42002F0E7FA002002F0E4FA88
:102BF000182002F0E1FA002002F0DEFA502002F084
:102C0000DBFA002002F0D8FA0C2002F0D5FA0020FE
:102C100002F0D2FA172002F0CFFA002002F0CCFA2C
:102C2000952002F0C9FA002002F0C6FAF32002F063
:102C3000C3FA002002F0C0FAE62002F0BDFA00203C
:102C400002F0BAFAC52002F0C3FA322002F0B4FA58
:102C5000002002F0B1FA442002F0AEFA002002F0A7
:102C6000ABFA652002F0A8FA002002F0A5FA76205F
:102C700002F0A2FA002002F09FFA882002F09CFAEB
:102C8000002002F099FAC62002F0A2FA202002F0F9
:102C900093FA002002F090FA172002F08DFA00203B
:102CA00002F08AFA012002F087FA002002F084FA8A
:102CB000C72002F08DFA002002F07EFA002002F018
:102CC0007BFA002002F078FA002002F075FAC820A2
:102CD00002F07EFA002002F06FFA002002F06CFA97
:102CE000002002F069FA002002F066FAC92002F022
:102CF0006FFA002002F060FA002002F05DFA002076
:102D000002F05AFA002002F057FA002002F054FABA
:102D1000002002F051FA002002F04EFA002002F0EA
:102D20004BFA002002F048FA002002F045FA002099
:102D300002F042FA002002F03FFA002002F03CFAD2
:102D4000002002F039FA002002F036FA002002F0EA
:102D500033FAE02002F03CFA162002F02DFA0020AF
:102D600002F02AFA1C2002F027FA002002F024FACE
:102D7000212002F021FA002002F01EFA362002F093
:102D80001BFA002002F018FA462002F015FA002083
:102D900002F012FA522002F00FFA002002F00CFAB0
:102DA000642002F009FA002002F006FA7A2002F00C
:102DB00003FA002002F000FA8B2002F0FDF9002057
:102DC00002F0FAF9992002F0F7F9002002F0F4F984
:102DD000A82002F0F1F9002002F0EEF9B92002F08B
:102DE000EBF9002002F0E8F9C42002F0E5F9002038
:102DF00002F0E2F9CA2002F0DFF9002002F0DCF96B
:102E0000D22002F0D9F9002002F0D6F9D92002F040
:102E1000D3F9002002F0D0F9E02002F0CDF9002033
:102E200002F0CAF9F32002F0C7F9002002F0C4F959
:102E3000E12002F0CDF9162002F0BEF9002002F0E8
:102E4000BBF91C2002F0B8F9002002F0B5F92220ED
:102E500002F0B2F9002002F0AFF9362002F0ACF92E
:102E6000002002F0A9F9452002F0A6F9002002F0A6
:102E7000A3F9522002F0A0F9002002F09DF964208D
:102E800002F09AF9002002F097F97A2002F094F902
:102E9000002002F091F98B2002F08EF9002002F060
:102EA0008BF9992002F088F9002002F085F9A8201A
:102EB00002F082F9002002F07FF9B92002F07CF9DB
:102EC000002002F079F9C42002F076F9002002F027
:102ED00073F9CA2002F070F9002002F06DF9D220D7
:102EE00002F06AF9002002F067F9D82002F064F9D4
:102EF000002002F061F9E02002F05EF9002002F00B
:102F00005BF9F32002F058F9002002F055F9E220B5
:102F100002F05EF9052002F04FF9002002F04CF9B2
:102F20000B2002F049F9002002F046F91B2002F0C4
:102F300043F9002002F040F9342002F03DF900206E
:102F400002F03AF9442002F037F9002002F034F997
:102F50004F2002F031F9002002F02EF9612002F03A
:102F60002BF9002002F028F9792002F025F9002041
:102F700002F022F9882002F01FF9002002F01CF96B
:102F8000972002F019F9002002F016F9A62002F0AD
:102F900013F9002002F010F9B72002F00DF900201B
:102FA00002F00AF9C22002F007F9002002F004F949
:102FB000C72002F001F9002002F0FEF8D12002F053
:102FC000FBF8002002F0F8F8D62002F0F5F8002017
:102FD00002F0F2F8DD2002F0EFF8002002F0ECF849
:102FE000F32002F0E9F8002002F0E6F8E32002F016
:102FF000EFF8052002F0E0F8002002F0DDF80A20EA
:1030000002F0DAF8002002F0D7F81C2002F0D4F821
:10301000002002F0D1F8332002F0CEF8002002F0B8
:10302000CBF8442002F0C8F8002002F0C5F8502088
:1030300002F0C2F8002002F0BFF8622002F0BCF8F3
:10304000002002F0B9F8782002F0B6F8002002F073
:10305000B3F8882002F0B0F8002002F0ADF8972015
:1030600002F0AAF8002002F0A7F8A62002F0A4F8C7
:10307000002002F0A1F8B72002F09EF8002002F034
:103080009BF8C22002F098F8002002F095F8C720C3
:1030900002F092F8002002F08FF8D12002F08CF8B4
:1030A000002002F089F8D52002F086F8002002F016
:1030B00083F8DD2002F080F8002002F07DF8F32094
:1030C00002F07AF8002002F077F8E42002F080F8AD
:1030D000012002F071F8002002F06EF8012002F0E9
:1030E0006BF8002002F068F8022002F065F800207A
:1030F00002F062F82A2002F05FF8002002F05CF88B
:103100003C2002F059F8002002F056F84B2002F063
:1031100053F8002002F050F85D2002F04DF8002036
:1031200002F04AF8742002F047F8002002F044F858
:10313000842002F041F8002002F03EF8932002F0D3
:103140003BF8002002F038F8A22002F035F8002009
:1031500002F032F8B32002F02FF8002002F02CF831
:10316000BE2002F029F8002002F026F8C42002F068
:1031700023F8002002F020F8CD2002F01DF80020F6
:1031800002F01AF8D32002F017F8002002F014F829
:10319000DD2002F011F8002002F00EF8F32002F01A
:1031A0000BF8002002F008F8E52002F011F80020EA
:1031B00002F002F8002001F0FFFF002001F0FCFF08
:1031C000002001F0F9FF022001F0F6FF002001F0DD
:1031D000F3FF292001F0F0FF002001F0EDFF3C207B
:1031E00001F0EAFF002001F0E7FF4B2001F0E4FFCF
:1031F000002001F0E1FF5D2001F0DEFF002001F082
:10320000DBFF742001F0D8FF002001F0D5FF8420FF
:1032100001F0D2FF002001F0CFFF932001F0CCFF9E
:10322000002001F0C9FFA22001F0C6FF002001F03C
:10323000C3FFB32001F0C0FF002001F0BDFFBE209E
:1032400001F0BAFF002001F0B7FFC42001F0B4FF85
:10325000002001F0B1FFCD2001F0AEFF002001F011
:10326000ABFFD32001F0A8FF002001F0A5FFDC2078
:1032700001F0A2FF002001F09FFFF32001F09CFF6E
:10328000002001F099FFE62001F0A2FF112001F0DB
:1032900093FF002001F090FF342001F08DFF00200B
:1032A00001F08AFF562001F087FF002001F084FF23
:1032B000762001F081FF002001F07EFF772001F0F1
:1032C0007BFF002001F078FF662001F075FF0020F1
:1032D00001F072FF882001F06FFF002001F06CFF09
:1032E000992001F069FF002001F066FFBB2001F08A
:1032F00063FF002001F060FF992001F05DFF0020D6
:1033000001F05AFF662001F057FF002001F054FF42
:10331000552001F051FF002001F04EFF552001F033
:103320004BFF002001F048FF452001F045FF002041
:1033300001F042FF432001F03FFF002001F03CFF7D
:10334000442001F039FF002001F036FFE72001F0B2
:103350003FFF322001F030FF002001F02DFF55200B
:1033600001F02AFF002001F027FF762001F024FF62
:10337000002001F021FF662001F01EFF002001F077
:103380001BFF672001F018FF002001F015FF6720E8
:1033900001F012FF002001F00FFF872001F00CFF69
:1033A000002001F009FF992001F006FF002001F044
:1033B00003FFBB2001F000FF002001F0FDFE99207B
:1033C00001F0FAFE002001F0F7FE772001F0F4FE94
:1033D000002001F0F1FE442001F0EEFE002001F09B
:1033E000EBFE562001F0E8FE002001F0E5FE232070
:1033F00001F0E2FE002001F0DFFE332001F0DCFEF0
:10340000002001F0D9FE452001F0D6FE002001F099
:10341000D3FEE82001F0DCFE002001F0CDFE00200C
:1034200001F0CAFE992001F0C7FE002001F0C4FEA1
:10343000872001F0C1FE002001F0BEFE882001F0CF
:10344000BBFE002001F0B8FE772001F0B5FE0020A1
:1034500001F0B2FE662001F0AFFE002001F0ACFEEC
:10346000882001F0A9FE002001F0A6FEAA2001F0AC
:10347000A3FE002001F0A0FEBB2001F09DFE002075
:1034800001F09AFE992001F097FE002001F094FED1
:10349000662001F091FE002001F08EFE552001F023
:1034A0008BFE002001F088FE552001F085FE0020F3
:1034B00001F082FE442001F07FFE002001F07CFE3E
:1034C000442001F079FE002001F076FE552001F045
:1034D00073FE002001F070FEE92001F079FEAA20C1
:1034E00001F06AFE002001F067FE002001F064FE9A
:1034F000002001F061FE002001F06AFEAA2001F028
:103500005BFECF2001F064FE002001F055FE00209C
:1035100001F052FE002001F04FFE002001F04CFEB1
:10352000002001F049FE002001F046FE002001F0DD
:1035300043FE002001F040FE002001F03DFE00208F
:1035400001F03AFE002001F037FE002001F034FEC9
:10355000002001F031FE002001F02EFE002001F0DD
:103560002BFE002001F028FE002001F025FEF020B7
:1035700001F02EFE002001F01FFE502001F01CFE85
:10358000002001F019FE002001F016FE002001F0DD
:1035900013FEF32001F01CFE002001F00DFEF920C7
:1035A00001F016FE062001F007FE102001F004FED7
:1035B000292001F001FE002001F0FEFD3A2001F07B
:1035C00007FE552001F0F8FD112001F001FE6420F6
:1035D000FEF7FAFD292001F0FBFD352001F0F8FD92
:1035E000002001F0E9FD512001F0F2FDFF2001F083
:1035F000E3FD532001F0ECFD2C2001F0DDFD552012
:1036000001F0E6FD822001F0D7FD2C2001F0E0FD65
:1036100010BD10B555214FF4704001F0EFFDAA2107
:103620004FF2010001F0EAFD52214FF2020001F0D9
:10363000E5FD08214FF2030001F0E0FD01214FF20A
:10364000040001F0DBFD0D214FF4304001F0D6FD08
:103650000D214BF2010001F0D1FD0D214BF20200D2
:1036600001F0CCFD34214FF4364001F0C7FD342188
:103670004BF2016001F0C2FD34214BF2026001F017
:10368000BDFD0D214FF4314001F0B8FD0D214BF28D
:10369000011001F0B3FD0D214BF2021001F0AEFD5F
:1036A00034214FF4374001F0A9FD34214BF2017071
:1036B00001F0A4FD34214BF2027001F09FFD0021C6
:1036C0004FF4324001F09AFD00214BF2012001F04D
:1036D00095FD00214BF2022001F090FD24214FF4D2
:1036E000384001F08BFD24214BF6010001F086FDEE
:1036F00024214BF6020001F081FD01214FF43F40EF
:1037000001F07CFD0F214FF4334001F077FD0F21D4
:103710004BF2013001F072FD0F214BF2023001F04B
:103720006DFD34214FF4394001F068FD34214BF632
:10373000011001F063FD34214BF6021001F05EFD33
:1037400008214FF4354001F059FD08214BF201509A
:1037500001F054FD08214BF2025001F04FFD03210E
:103760004FF4424001F04AFD24214FF43A4001F069
:1037700045FD24214BF6012001F040FD24214BF6AC
:10378000022001F03BFD00214FF43C4001F036FDEA
:1037900078214BF6014001F031FD00214BF602404B
:1037A00001F02CFD00214FF43D4001F027FD782170
:1037B0004BF6015001F022FD00214BF6025001F0C2
:1037C0001DFD00214FF43E4001F018FD64214BF631
:1037D000016001F013FD00214FF4514001F00EFD96
:1037E00033214DF2011001F009FD00214DF20210CC
:1037F00001F004FD34214DF2031001F0FFFC002123
:103800004DF2041001F0FAFC3A214DF2051001F0DE
:10381000F5FC00214DF2061001F0F0FC4A214DF2BA
:10382000071001F0EBFC00214DF2081001F0E6FC5E
:103830005C214DF2091001F0E1FC00214DF20A106B
:1038400001F0DCFC81214DF20B1001F0D7FC0021CE
:103850004DF20C1001F0D2FCA6214DF20D1001F03A
:10386000CDFC00214DF20E1001F0C8FCE5214DF217
:103870000F1001F0C3FC01214DF2101001F0BEFC4D
:1038800013214DF2111001F0B9FC01214DF212107B
:1038900001F0B4FC54214DF2131001F0AFFC0121F2
:1038A0004DF2141001F0AAFC82214DF2151001F026
:1038B000A5FC01214DF2161001F0A0FCCA214DF229
:1038C000171001F09BFC02214DF2181001F096FC3C
:1038D00000214DF2191001F091FC02214DF21A1055
:1038E00001F08CFC01214DF21B1001F087FC02213C
:1038F0004DF21C1001F082FC34214DF21D1001F03C
:103900007DFC02214DF21E1001F078FC67214DF282
:103910001F1001F073FC02214DF2201001F06EFC2B
:1039200084214DF2211001F069FC02214DF2221098
:1039300001F064FCA4214DF2231001F05FFC022190
:103940004DF2241001F05AFCB7214DF2251001F080
:1039500055FC02214DF2261001F050FCCF214DF212
:10396000271001F04BFC02214DF2281001F046FC1B
:10397000DE214DF2291001F041FC02214DF22A1006
:1039800001F03CFCF2214DF22B1001F037FC02213A
:103990004DF22C1001F032FCFE214DF22D1001F001
:1039A0002DFC03214DF22E1001F028FC10214DF2C8
:1039B0002F1001F023FC03214DF2301001F01EFC0A
:1039C00033214DF2311001F019FC03214DF2321078
:1039D00001F014FC6D214DF2331001F00FFC0021B9
:1039E0004FF4524001F00AFC33214DF2012001F066
:1039F00005FC00214DF2022001F000FC34214DF2C3
:103A0000032001F0FBFB00214DF2042001F0F6FB46
:103A10003A214DF2052001F0F1FB00214DF2062084
:103A200001F0ECFB4A214DF2072001F0E7FB0021F9
:103A30004DF2082001F0E2FB5C214DF2092001F07B
:103A4000DDFB00214DF20A2001F0D8FB81214DF26F
:103A50000B2001F0D3FB00214DF20C2001F0CEFB36
:103A6000A6214DF20D2001F0C9FB00214DF20E20E0
:103A700001F0C4FBE5214DF20F2001F0BFFB012155
:103A80004DF2102001F0BAFB13214DF2112001F08C
:103A9000B5FB01214DF2122001F0B0FB54214DF293
:103AA000132001F0ABFB01214DF2142001F0A6FB25
:103AB00082214DF2152001F0A1FB01214DF21620CB
:103AC00001F09CFBCA214DF2172001F097FB022167
:103AD0004DF2182001F092FB00214DF2192001F067
:103AE0008DFB02214DF21A2001F088FB01214DF2DD
:103AF0001B2001F083FB02214DF21C2001F07EFB14
:103B000034214DF21D2001F079FB02214DF21E20DF
:103B100001F074FB67214DF21F2001F06FFB0221C1
:103B20004DF2202001F06AFB84214DF2212001F0AA
:103B300065FB02214DF2222001F060FBA4214DF231
:103B4000232001F05BFB02214DF2242001F056FB03
:103B5000B7214DF2252001F051FB02214DF2262024
:103B600001F04CFBCF214DF2272001F047FB022151
:103B70004DF2282001F042FBDE214DF2292001F018
:103B80003DFB02214DF22A2001F038FBF2214DF2DB
:103B90002B2001F033FB02214DF22C2001F02EFBF3
:103BA000FE214DF22D2001F029FB03214DF22E20A4
:103BB00001F024FB10214DF22F2001F01FFB032107
:103BC0004DF2302001F01AFB33214DF2312001F08B
:103BD00015FB03214DF2322001F010FB6D214DF257
:103BE000332001F00BFB00214FF4534001F006FBA2
:103BF00033214DF2013001F001FB00214DF2023082
:103C000001F0FCFA34214DF2033001F0F7FA002103
:103C10004DF2043001F0F2FA3A214DF2053001F094
:103C2000EDFA00214DF2063001F0E8FA4A214DF29A
:103C3000073001F0E3FA00214DF2083001F0DEFA1E
:103C40005C214DF2093001F0D9FA00214DF20A3021
:103C500001F0D4FA81214DF20B3001F0CFFA0021AE
:103C60004DF20C3001F0CAFAA6214DF20D3001F0F0
:103C7000C5FA00214DF20E3001F0C0FAE5214DF2F7
:103C80000F3001F0BBFA01214DF2103001F0B6FA0D
:103C900013214DF2113001F0B1FA01214DF2123031
:103CA00001F0ACFA54214DF2133001F0A7FA0121D2
:103CB0004DF2143001F0A2FA82214DF2153001F0DC
:103CC0009DFA01214DF2163001F098FACA214DF209
:103CD000173001F093FA02214DF2183001F08EFAFC
:103CE00000214DF2193001F089FA02214DF21A300B
:103CF00001F084FA01214DF21B3001F07FFA02211C
:103D00004DF21C3001F07AFA34214DF21D3001F0F1
:103D100075FA02214DF21E3001F070FA67214DF262
:103D20001F3001F06BFA02214DF2203001F066FAEB
:103D300084214DF2213001F061FA02214DF222304E
:103D400001F05CFAA4214DF2233001F057FA022170
:103D50004DF2243001F052FAB7214DF2253001F036
:103D60004DFA02214DF2263001F048FACF214DF2F2
:103D7000273001F043FA02214DF2283001F03EFADB
:103D8000DE214DF2293001F039FA02214DF22A30BC
:103D900001F034FAF2214DF22B3001F02FFA02211A
:103DA0004DF22C3001F02AFAFE214DF22D3001F0B7
:103DB00025FA03214DF22E3001F020FA10214DF2A8
:103DC0002F3001F01BFA03214DF2303001F016FACA
:103DD00033214DF2313001F011FA03214DF232302E
:103DE00001F00CFA6D214DF2333001F007FA002199
:103DF0004FF4544001F002FA33214DF2014001F03A
:103E0000FDF900214DF2024001F0F8F934214DF2A4
:103E1000034001F0F3F900214DF2044001F0EEF906
:103E20003A214DF2054001F0E9F900214DF206403A
:103E300001F0E4F94A214DF2074001F0DFF90021D9
:103E40004DF2084001F0DAF95C214DF2094001F031
:103E5000D5F900214DF20A4001F0D0F981214DF24F
:103E60000B4001F0CBF900214DF20C4001F0C6F9F6
:103E7000A6214DF20D4001F0C1F900214DF20E4096
:103E800001F0BCF9E5214DF20F4001F0B7F9012135
:103E90004DF2104001F0B2F913214DF2114001F042
:103EA000ADF901214DF2124001F0A8F954214DF273
:103EB000134001F0A3F901214DF2144001F09EF9E5
:103EC00082214DF2154001F099F901214DF2164081
:103ED00001F094F9CA214DF2174001F08FF9022147
:103EE0004DF2184001F08AF900214DF2194001F01D
:103EF00085F902214DF21A4001F080F901214DF2BD
:103F00001B4001F07BF902214DF21C4001F076F9D3
:103F100034214DF21D4001F071F902214DF21E4095
:103F200001F06CF967214DF21F4001F067F90221A1
:103F30004DF2204001F062F984214DF2214001F060
:103F40005DF902214DF2224001F058F9A4214DF211
:103F5000234001F053F902214DF2244001F04EF9C3
:103F6000B7214DF2254001F049F902214DF22640DA
:103F700001F044F9CF214DF2274001F03FF9022131
:103F80004DF2284001F03AF9DE214DF2294001F0CE
:103F900035F902214DF22A4001F030F9F2214DF2BB
:103FA0002B4001F02BF902214DF22C4001F026F9B3
:103FB000FE214DF22D4001F021F903214DF22E405A
:103FC00001F01CF910214DF22F4001F017F90321E7
:103FD0004DF2304001F012F933214DF2314001F041
:103FE0000DF903214DF2324001F008F96D214DF237
:103FF000334001F003F900214FF4554001F0FEF881
:1040000033214DF2015001F0F9F800214DF2025038
:1040100001F0F4F834214DF2035001F0EFF80021E3
:104020004DF2045001F0EAF83A214DF2055001F04A
:10403000E5F800214DF2065001F0E0F84A214DF27A
:10404000075001F0DBF800214DF2085001F0D6F8DE
:104050005C214DF2095001F0D1F800214DF20A50D7
:1040600001F0CCF881214DF20B5001F0C7F800218E
:104070004DF20C5001F0C2F8A6214DF20D5001F0A6
:10408000BDF800214DF20E5001F0B8F8E5214DF2D7
:104090000F5001F0B3F801214DF2105001F0AEF8CD
:1040A00013214DF2115001F0A9F801214DF21250E7
:1040B00001F0A4F854214DF2135001F09FF80121B2
:1040C0004DF2145001F09AF882214DF2155001F092
:1040D00095F801214DF2165001F090F8CA214DF2E9
:1040E000175001F08BF802214DF2185001F086F8BC
:1040F00000214DF2195001F081F802214DF21A50C1
:1041000001F07CF801214DF21B5001F077F80221FB
:104110004DF21C5001F072F834214DF21D5001F0A7
:104120006DF802214DF21E5001F068F867214DF242
:104130001F5001F063F802214DF2205001F05EF8AB
:1041400084214DF2215001F059F802214DF2225004
:1041500001F054F8A4214DF2235001F04FF8022150
:104160004DF2245001F04AF8B7214DF2255001F0EC
:1041700045F802214DF2265001F040F8CF214DF2D2
:10418000275001F03BF802214DF2285001F036F89B
:10419000DE214DF2295001F031F802214DF22A5072
:1041A00001F02CF8F2214DF22B5001F027F80221FA
:1041B0004DF22C5001F022F8FE214DF22D5001F06D
:1041C0001DF803214DF22E5001F018F810214DF288
:1041D0002F5001F013F803214DF2305001F00EF88A
:1041E00033214DF2315001F009F803214DF23250E4
:1041F00001F004F86D214DF2335000F0FFFF002173
:104200004FF4564000F0FAFF33214DF2016000F008
:10421000F5FF00214DF2026000F0F0FF34214DF275
:10422000036000F0EBFF00214DF2046000F0E6FFB8
:104230003A214DF2056000F0E1FF00214DF20660E9
:1042400000F0DCFF4A214DF2076000F0D7FF0021AB
:104250004DF2086000F0D2FF5C214DF2096000F0E1
:10426000CDFF00214DF20A6000F0C8FF81214DF220
:104270000B6000F0C3FF00214DF20C6000F0BEFFA8
:10428000A6214DF20D6000F0B9FF00214DF20E6045
:1042900000F0B4FFE5214DF20F6000F0AFFF012107
:1042A0004DF2106000F0AAFF13214DF2116000F0F2
:1042B000A5FF01214DF2126000F0A0FF54214DF244
:1042C000136000F09BFF01214DF2146000F096FF97
:1042D00082214DF2156000F091FF01214DF2166030
:1042E00000F08CFFCA214DF2176000F087FF022119
:1042F0004DF2186000F082FF00214DF2196000F0CD
:104300007DFF02214DF21A6000F078FF01214DF28D
:104310001B6000F073FF02214DF21C6000F06EFF85
:1043200034214DF21D6000F069FF02214DF21E6044
:1043300000F064FF67214DF21F6000F05FFF022173
:104340004DF2206000F05AFF84214DF2216000F010
:1043500055FF02214DF2226000F050FFA4214DF2E2
:10436000236000F04BFF02214DF2246000F046FF75
:10437000B7214DF2256000F041FF02214DF2266089
:1043800000F03CFFCF214DF2276000F037FF022103
:104390004DF2286000F032FFDE214DF2296000F07E
:1043A0002DFF02214DF22A6000F028FFF2214DF28C
:1043B0002B6000F023FF02214DF22C6000F01EFF65
:1043C000FE214DF22D6000F019FF03214DF22E6009
:1043D00000F014FF10214DF22F6000F00FFF0321B9
:1043E0004DF2306000F00AFF33214DF2316000F0F1
:1043F00005FF03214DF2326000F000FF6D214DF208
:10440000336000F0FBFE55214FF4704000F0F6FEE3
:10441000AA214FF2010000F0F1FE52214FF20200FA
:1044200000F0ECFE08214FF2030000F0E7FE00214F
:104430004FF2040000F0E2FECC214FF4314000F0D6
:10444000DDFE00214BF2011000F0D8FE05214FF4F3
:10445000364000F0D3FE70214FF4374000F0CEFE1E
:1044600070214BF2017000F0C9FE01214FF4384079
:1044700000F0C4FE03214BF6010000F0BFFE032153
:104480004BF6020000F0BAFE03214BF6030000F0E9
:10449000B5FE02214FF43C4000F0B0FE00214BF687
:1044A000014000F0ABFE00214BF6024000F0A6FEFA
:1044B000D0214FF4494000F0A1FE02214CF601103A
:1044C00000F09CFE50214CF6021000F097FE5021A7
:1044D0004CF6031000F092FE50214CF6041000F050
:1044E0008DFE00214FF4545000F088FE55214FF40A
:1044F000685000F083FE4FF4885000F069FE782089
:10450000FDF76EFE4FF4245000F062FE10BD10B5B2
:10451000E22000F05DFE1D2000F04EFE022000F0C3
:104520004BFE042000F048FE6420FDF759FEE02019
:1045300000F04EFE012000F03FFE0A20FDF744FE91
:10454000E02000F045FE032000F036FE0C20FDF7D1
:104550003BFE012000F03CFE0A20FDF735FEE62080
:1045600000F036FE2F2000F027FEFF2000F024FE92
:10457000FF2000F021FEB02000F02AFE202000F0F5
:104580001BFE002000F018FE032000F015FE40F294
:104590001F3000F011FE012000F00EFE40F2DF108F
:1045A00000F00AFE002000F007FEB42000F010FE2C
:1045B000042000F001FE40F21F4000F0FDFD00204D
:1045C00000F0FAFD2E2000F0F7FD002000F0F4FDD1
:1045D000002000F0F1FD002000F0EEFD002000F0D2
:1045E000EBFDB62000F0F4FD022000F0E5FD4FF4F5
:1045F000037000F0E1FD002000F0DEFD172000F068
:10460000DBFD152000F0D8FD002000F0D5FD0020D6
:1046100000F0D2FDF02000F0DBFD032000F0CCFD27
:10462000292000F0D5FDD02000F0D2FD002000F0C0
:10463000C3FDBE2000F0CCFD052000F0BDFDFE2036
:1046400000F0BAFD012000F0B7FD002000F0B4FD3D
:10465000002000F0B1FD002000F0AEFDB82000F019
:10466000B7FD032000F0A8FD012000F0A5FDBA2051
:1046700000F0AEFD012000F09FFD10BD10B511202F
:1046800000F0A6FD7820FDF79FFD362000F0A0FD8C
:10469000002000F091FD3A2000F09AFD052000F086
:1046A0008BFDB22000F094FD0C2000F085FD0C2065
:1046B00000F082FD002000F07FFD332000F07CFD43
:1046C000332000F079FDB72000F082FD352000F0A6
:1046D00073FDBB2000F07CFD322000F06DFDC0209A
:1046E00000F076FD0C2000F067FDC22000F070FDA8
:1046F000012000F061FDC32000F06AFD102000F0F1
:104700005BFDC42000F064FD202000F055FDC620B4
:1047100000F05EFD0F2000F04FFDD02000F058FDAE
:10472000A42000F049FDA12000F046FDE02000F0AB
:104730004FFDD02000F040FD002000F03DFD0220A4
:1047400000F03AFD072000F037FD0A2000F034FDAC
:10475000282000F031FD322000F02EFD442000F032
:104760002BFD422000F028FD062000F025FD0E2044
:1047700000F022FD122000F01FFD142000F01CFDAF
:10478000172000F019FDE12000F022FDD02000F0FC
:1047900013FD002000F010FD022000F00DFD0720A9
:1047A00000F00AFD0A2000F007FD282000F004FDBB
:1047B000312000F001FD542000F0FEFC472000F005
:1047C000FBFC0E2000F0F8FC1C2000F0F5FC17208C
:1047D00000F0F2FC1B2000F0EFFC1E2000F0ECFCCF
:1047E0002A2000F0F5FC002000F0E6FC002000F09C
:1047F000E3FC002000F0E0FCEF2000F0DDFC2B20CB
:1048000000F0E6FC002000F0D7FC002000F0D4FC13
:10481000012000F0D1FC3F2000F0CEFC292000F068
:10482000D7FC10BD00B595B000BF00BF00200190BF
:10483000FD48006840F04000FB49086008460068F9
:1048400000F04000019000BF00BF00BF00BF00BFEC
:10485000002001900846006840F008000860084603
:10486000006800F00800019000BF00BF00BF00BF5B
:1048700000BF002001900846006840F00800086072
:104880000846006800F00800019000BF00BF00BFAC
:1048900000BF00BF002001900846006840F04000C3
:1048A00008600846006800F04000019000BF00BFAB
:1048B00000BF00BF00BF002001900846006840F024
:1048C000020008600846006800F00200019000BF86
:1048D00000BF00BF88141090022011900120129098
:1048E000022013900C20149010A9D048FCF7C4F8B3
:1048F0002020109010A9CE48FCF7BEF81020109090
:1049000010A9CB48FCF7B8F84FF48050109010A9CC
:10491000C848FCF7B1F84FF4004010900120119006
:1049200010A9C548FCF7A8F84FF02040C34908601B
:10493000C3484860062088600021C048C16010213B
:10494000416100218161C16141624FF48051816206
:104950000021C1624FF48041016300214163816302
:104960000F20099000200A903C200B9000200F900F
:104970000590092002900020039009200490002057
:10498000089002AA09A9AD48FCF7D0FD3220FDF736
:104990001BFCD32000F01CFC00F056F9A9498880CC
:1049A00000F052F9A749888000F04EF9A5498880A7
:1049B000084680884FF6FF7101EA0020A1498880EF
:1049C00000F042F99F49898808439E49888008463B
:1049D000808849F2413188427DD0042000F0F8FB04
:1049E00000F032F99749888000F02EF995498880C7
:1049F00000F02AF993498880084680884FF6FF71B5
:104A000001EA00208F49888000F01EF98D498988CD
:104A100008438C4988800846808848F25251884271
:104A200003D147F28970874988808648808847F299
:104A300089718842D0D0D42000F0CAFB00F004F97C
:104A40008049888000F000F97E49888000F0FCF8F9
:104A50007C498880084680884FF6FF7101EA002073
:104A60007849888000F0F0F87649898808437549CC
:104A700088800846808845F21031884262D05521EE
:104A80004FF4704000F0BAFBAA214FF2010000F091
:104A9000B5FB52214FF2020000F0B0FB08214FF2AB
:104AA000030000F0ABFB01214FF2040000F0A6FB75
:104AB0004FF4454000F08CFB00F0C6F86149888057
:104AC000084680884FF6FF7101EA00205D49888022
:104AD0004CF2015000E035E000F07AFB00F0B4F851
:104AE000584989880843574988800520FDF76CFBA1
:104AF0005448808845F21051884223D0A12000F00C
:104B000067FB00F0A1F84F49888000F09DF84D49FF
:104B10008880084680884FF6FF7101EA00204949E5
:104B2000888000F091F84749898808434549888082
:104B30000846808845F26171884203D141F66310CE
:104B4000404988803F48808847F28971884202D175
:104B5000FFF794FD25E03B48808849F241318842C7
:104B600002D1FDF7C7FC1CE03648808845F21031C1
:104B7000884202D1FDF7D4FD13E03248808845F227
:104B80001051884202D1FEF744FD0AE02D4880888A
:104B900041F66311884204D1FFF7B9FC642000F0AC
:104BA000DBFA2848808849F2413188420BD02548F9
:104BB000808841F66311884205D02248808847F2F8
:104BC0008971884209D10320029004901B490B6B24
:104BD0008A68486802A9FBF771FE1A48808845F286
:104BE0001031884205D01748808845F2105188421C
:104BF00009D102200290049010490B6B8A68486822
:104C000002A9FBF75BFE0020FDF7CCFB00BF0122F1
:104C1000D1030948FCF73CF800BF4FF6FF70FDF7E1
:104C2000A7FB15B000BD000030380240001802405C
:104C3000000C02400014024000040240F801002071
:104C4000040100A04802002008B503480088009035
:104C5000BDF8000008BD00008000006CF0B50546FE
:104C60000024002788488079012805D1864880885B
:104C700041F66311884208D183488079F0B98248AF
:104C8000808841F66311884218D1082D15D2DFE8DB
:104C900005F00406080A0C0E101206250DE0072583
:104CA0000BE0042509E0052507E0012505E00025C6
:104CB00003E0032501E0022500BF00BF082D1CD240
:104CC000DFE805F00406090C0F12151800BF14E008
:104CD00044F0800411E044F040040EE044F0C004CD
:104CE0000BE044F0200408E044F0600405E044F0E8
:104CF000A00402E044F0E00400BF00BF3627624891
:104D0000808845F21051884200D13F025E48808879
:104D100049F24131884205D05B48808847F2897169
:104D2000884201D144F008042146384600F066FA72
:104D30005548808841F6631188421DD004F0200058
:104D400068B15148008850494988884214DA4E4871
:104D5000068840884C490880084646800CE04A484E
:104D6000008849494988884206DD474806884088C6
:104D700045490880084646804348808845F21051DE
:104D8000884252D14049488900F022FA002000F0C0
:104D900013FA3D494989491C88B200F019FA0020EC
:104DA00000F00AFA38494989891C88B200F010FAE3
:104DB00035490988491EC1F30F2000F0FDF9324939
:104DC0004989C91C88B200F003FA2F490978491EA5
:104DD000C8B200F0F1F92C49888900F0F9F90020F7
:104DE00000F0EAF928498989491C88B200F0F0F9F5
:104DF000002000F0E1F924498989891C88B200F07B
:104E0000E7F921494988491EC1F30F2000F0D4F980
:104E10001D498989C91C88B200F0DAF91A498978D4
:104E2000491EC8B200F0C8F92DE01749488900F0C2
:104E3000CFF9002000F0C0F9002000F0BDF91249C0
:104E40000988491EC1F30F2000F0B6F90E49097810
:104E5000491EC8B200F0B0F90B49888900F0B8F9D2
:104E6000002000F0A9F9002000F0A6F906494988C1
:104E7000491EC1F30F2000F09FF903498978491EAC
:104E8000C8B200F099F9F0BD4802002010B5024602
:104E90000C464548808841F66311884247D1424814
:104EA0008079A8B940480088401E801A82B23E49E5
:104EB000488900F08DF9002000F07EF9002000F014
:104EC0007BF9101200F078F9D0B200F075F916E015
:104ED0003549488900F07CF9101200F06DF9D0B224
:104EE00000F06AF930490988491EC1F30F2000F02B
:104EF00063F92D490978491EC8B200F05DF92A49C5
:104F0000888900F065F9201200F056F9E0B200F04F
:104F100053F925494988491EC1F30F2000F04CF987
:104F200021498978491EC8B200F046F93AE01E4886
:104F3000808845F21051884220D11B49488900F0F1
:104F400047F9101200F038F917494989491C88B20D
:104F500000F03EF9D0B200F02FF91349888900F033
:104F600037F9201200F028F90F498989491C88B2C5
:104F700000F02EF9E0B200F01FF913E00A49488969
:104F800000F026F9101200F017F9D0B200F014F971
:104F90000549888900F01CF9201200F00DF9E0B2F3
:104FA00000F00AF910BD0000480200202DE9FC4F76
:104FB00080460E4615461C46B346002001900090E0
:104FC0002046E31704EB5373DB1021464FEAE47CE1
:104FD00004EB5C7C4FEAEC0CA4EBCC0CBCF1000FB6
:104FE00002D04FF0010C01E04FF0000C6344224668
:104FF00004EBD27C4FEA6C0C03FB0CF3DBB20193A5
:10500000A5F12000C5B20C2C06D0102C0BD0182C0A
:105010000ED0202C18D112E005EB45002D4901EBF4
:105020008000009012E02C4800EB051000900DE08D
:1050300005EBC500294901EB8000009006E02848F7
:1050400000EB8510009001E0BDE8FC8F00BF002759
:105050003AE0009810F807904FF0000A2EE009F0AF
:10506000800028B1314640460C9AFDF733FA07E03C
:105070000B9828B91B48314602684046FDF72AFACA
:105080004FEA49604FEA1069701C86B216484088A2
:10509000B04200DCD8E7A6EB0B00A0420AD15E4686
:1050A00008F101001FFA80F80F480088404500DC35
:1050B000CAE706E00AF1010000F0FF0ABAF1080FA2
:1050C000CDDB00BF781CC7B201988742C1DB00BFAF
:1050D000BAE70000A67C00081A8100080A870008C9
:1050E0006694000844000020480200202DE9FC4F8F
:1050F00004460D4690469946DDE90C7A0B9E04F075
:10510000FF0B08EB04001FFA80F809EB05001FFAFB
:1051100080F917E0444502DB5C46A81985B24D458D
:1051200000DB15E00020CDE9000A3A783346294635
:105130002046FFF73BFF304606EBD07104EB6101E0
:105140008CB27F1C38787E2802DC38782028E1DA9F
:1051500000BFBDE8FC8F000070B52DED048B044648
:10516000BE2000F035F8052000F026F8204602F0B9
:1051700078FC41EC190B9FED0E0B53EC102B02F059
:1051800083FC41EC180B02F03FFC85B2284600F08E
:1051900013F8012000F010F8FF2000F00DF80020B7
:1051A00000F00AF8002000F007F8BDEC048B70BD99
:1051B000666666666666044001B5BDF8000000904C
:1051C000BDF800000149088008BD00008000006CA7
:1051D00001B5BDF800000090BDF80000014908804D
:1051E00008BD00007E00006C02480089024908806A
:1051F00070470000480200207E00006C034A1080C7
:105200004FF0D842A2F88010704700007E00006C7A
:1052100000B587B000BF00BF0020019020480068A3
:1052200040F020001E4908600846006800F0200099
:10523000019000BF00BF00BF00BF00BF0020019071
:105240000846006840F0200008600846006800F04A
:105250002000019000BF00BF00BF48150290012050
:10526000039004900220059002A90E48FBF704FC6D
:105270004FF48060029002A90A48FBF7FDFB00BFD3
:10528000012251020748FBF703FD00BF00BF0122C6
:1052900091020448FBF7FCFC00BF07B000BD000012
:1052A00030380240001402400EB5FBF70FFD072313
:1052B000022208214FF4A87001F0C2F8A820FCF7E0
:1052C00067FF4FF4E13001F049F9FFF7A1FFFFF765
:1052D000A9FAFCF7CFFF00F089FF002000F0C4F826
:1052E000022000F0C1F8012000F0BEF84FF4784031
:1052F00039A110221346CDE900210290C8223221A3
:105300001E20FFF7F3FE4FF4784035A1102213461C
:10531000CDE900210290C82246211E20FFF7E6FEBB
:105320004FF4784031A110221346CDE900210290BC
:10533000C8225A211E20FFF7D9FE4FF478402FA132
:1053400010221346CDE900210290C8226E211E20B2
:10535000FFF7CCFE4FF478402EA110221346CDE982
:1053600000210290C82282211E20FFF7BFFE1F20CD
:105370002EA110221346CDE900210290C822A021BF
:105380003C20FFF7B3FE1F202BA110221346CDE9CE
:1053900000210290C822B0211E20FFF7A7FE1F2087
:1053A00029A110221346CDE900210290C822C02174
:1053B0001E20FFF79BFE1F2027A110221346CDE9D8
:1053C00000210290C822D0211E20FFF78FFEFCF79B
:1053D00039FF00200EBD000053544D333200000051
:1053E0004D414C4C4F4320544553540041544F4D74
:1053F00040414C49454E54454B0000004B45593007
:105400003A4D616C6C6F6320262057522026205342
:10541000686F77004B45595F55503A5352414D786C
:10542000204B4559313A4672656500002053524180
:105430004D494E20000000005352414D494E20205E
:1054400020555345443A00005352414D43434D20AB
:1054500020555345443A00005352414D45582020B1
:1054600020555345443A000030B50446022508490A
:1054700051F8241001FB05F2064951F824000021DF
:1054800000F02AF8012103480C30015530BD00001E
:1054900028AC00085C00002010B501460023002263
:1054A00007E00B4850F8210030F8120000B15B1CF7
:1054B000521C084850F821009042F2D84FF47A70FC
:1054C0005843044C54F82140B0FBF4F080B210BDB6
:1054D0005C00002028AC000830B5034601E003F86A
:1054E000011B1400A2F10102F9D130BD2DE9F041F8
:1054F00005460E462948076800202949096881F8B1
:10550000590027480068001D01F044F850B92448AC
:10551000006890F82C1001208840224909688143D6
:1055200020480160681CD8B9D6B11F4948681C4999
:10553000096888601A4982680968CA601849096858
:10554000091D8268516016490968091D8160164A63
:10555000134909684A6111460968491C11601AE03B
:105560007C190F4800684460BC4207D20C480168AF
:10557000091D0E48006801F031F80CE00848016888
:10558000091D0B48006801F029F80A4800688442A8
:1055900001D208480460BDE8F081000080000020CE
:1055A0006C0000208400002010AF01207400002057
:1055B000700000209C00002010B5044601F034F873
:1055C00031480068401C304908603048006840B9E4
:1055D0002E4804600846006801280DD100F016FA34
:1055E0000AE02B48006838B928480068C06AE16AB8
:1055F000884201D82548046026480068401C254997
:10560000086008460068606494F82C100120884007
:1056100021490968084320490860E16A01EB8101DA
:105620001E4A02EB81014868A0608268E260211D89
:10563000826851608160E16A01EB8101174A02EBE7
:1056400081026261E16A01EB8101144A52F8211082
:10565000491CE26A02EB8202104B43F8221001F06F
:105660002FF80B48006868B108480068C06AE16A12
:10567000884207D24FF0805009490860BFF34F8F2E
:10568000BFF36F8F10BD00007C0000206C00002075
:1056900088000020980000208400002040AC0120F9
:1056A00004ED00E010B500F0BFFF10480068D0B96D
:1056B0000F4800F083FF0F4800F080FF0C480E49B0
:1056C00008600C480D49086000221021052001F0F7
:1056D00037FC064908600846006820B108A1034865
:1056E000006801F0ADF800F0EBFF10BDB400002041
:1056F00024AF012038AF0120AC000020B000002012
:10570000546D72510000000010B516E000F08CFFDF
:105710000C48C068C468201D00F03CFF0A480068BF
:10572000401E0949086009480068401E0749086092
:1057300000F0C6FF204600F05FF80448006800282B
:10574000E4D110BDFCAE01207C00002078000020D8
:1057500070B504460D46206C70B1216CE0680144C0
:10576000E160D4E90210884201D32168E160284653
:10577000226CE168FAF704FF70BD2DE9F0410446A0
:105780000F4615464FF00008A66B206C48B92068FC
:1057900000282CD1A06801F0F9FE80460020A0600E
:1057A00025E07DB93946226C6068FAF7E9FE216C84
:1057B000606808446060D4E90101884217D320681A
:1057C000606014E03946226CE068FAF7D9FE216C7B
:1057D000E068411AE1602168E068884203D2216CE8
:1057E000A068411AE160022D01D106B1761E701C3D
:1057F000A0634046BDE8F08110B50446206B00F080
:105800009FFF204600F09CFF10BD00000146084AA3
:10581000126812680AB9012200E000220A600A68D0
:1058200022B9034A1268D268106800E0002070476D
:10583000AC00002030B54FF42053174800F00704A7
:105840002CB1C01D20F00700134C041B1B1B02468B
:10585000124C22600024114D6C60D018083820F0E2
:1058600007000F4C206000240D4D2D686C600C4D1E
:105870002D682C601146441A4C60094C24680C6059
:10588000084D4C682C60084D4C682C604FF000446B
:10589000064D2C6030BD00004CAF0120C000002040
:1058A000C8000020D0000020CC000020DC00002038
:1058B00000BFFFF729FF064800680128F9D94FF01B
:1058C000805004490860BFF34F8FBFF36F8FF0E73C
:1058D00040AC012004ED00E02DE9F04106460D4604
:1058E00017469846069C0DB9246000E02760E663E1
:1058F00025640121204601F06BFB84F850800020D4
:10590000A064BDE8F08100002DE9F05F82460F46FB
:1059100090469B460A9E0C9C4FEA8801A522206B6C
:10592000FAF773FEA8F10100216B01EB800929F061
:10593000070909F0070008B9012000E0002028B994
:105940004FF4587224A12DA0FAF774FD87B10025F9
:1059500007E0795D04F134004155785D00B902E05B
:105960006D1C102DF5D300BF00214320015502E02E
:10597000002084F83400202E01D2012000E0002015
:1059800028B940F2973214A11CA0FAF753FD202E3B
:1059900000D31F26E662E66400202065201D00F08B
:1059A0001AFE04F1180000F016FE2461C6F1200072
:1059B000A06164620020606584F8580084F8590092
:1059C0005A465146484600F0FBFB20600B9808B150
:1059D0000B980460BDE8F09F2E2E5C2E2E5C4D6966
:1059E00064646C6577617265735C46726565525478
:1059F0004F535C7461736B732E6300004572726F5A
:105A0000723A2025732C2025640D0A0010B500245D
:105A100007E004EB84010F4A02EB810000F0CEFDA9
:105A2000641C202CF5D30C4800F0C8FD0B4800F096
:105A3000C5FD0B4800F0C2FD0A4800F0BFFD0A4852
:105A400000F0BCFD044809490860044808490860A2
:105A500010BD000040AC0120C0AE0120D4AE01203A
:105A6000E8AE0120FCAE012010AF01207000002044
:105A70007400002010B50146164800E00068036875
:105A80008B42FBD30246436813448B4204D14368E4
:105A90004C682344436001460A464B68134404683B
:105AA000A34211D10C4C03682468A34208D04B6870
:105AB0000468646823444B6003681B680B6005E05E
:105AC000054B1B680B6001E003680B60884200D047
:105AD000016010BDC0000020C80000202DE9F04189
